:03000000020006F5
:03005F0002000399
:030003000203AA4B
:20006200901003E0FFBF12028009BF21028004C2008002D200A200E433FF0000000000006C
:200082000000000000000000000000EF6009901007E0FD7E0080047D127E0090E600EDF020
:2000A2000000000000000000000000000000000000EF6009901004E0FE7F0080047EC37FA1
:2000C2000090E601EEF0000000000000000000000000000000000090E60B7403F0000000E1
:2000E200000000000000000000000000000090E670E4F00000000000000000000000000044
:200102000000000090E6097402F0000000000000000000000000000000000090E614E4F09A
:20012200000000000000000000000000000000000090E612E4F00000000000000000000061
:200142000000000000000090E61AE4F0000000000000000000000000000000000090E618AB
:20016200E4F0000000000000000000000000000000000075B200901003E0FFBF12028003AA
:20018200020270901005E0FE90E614F0000000000000000000000000000000000090E60472
:2001A2007480F0000000000000000000000000000000000090E6047482F0000000000000F9
:2001C200000000000000000000000090E6047484F0000000000000000000000000000000BB
:2001E200000090E6047486F0000000000000000000000000000000000090E6047488F00033
:200202000000000000000000000000000000000090E604E4F000000000000000000000008E
:20022200000000000000901006E0FE90E61AF00000000000000000000000000000000000B8
:2002420090E6247402F0000000000000000000000000000000000090E625E4F0000000002D
:200262000000000000000000000000000022BF2102800122901005E0FF90E612F0000000D9
:20028200000000000000000000000000000090E6047480F0000000000000000000000000FE
:2002A200000000000090E6047482F0000000000000000000000000000000000090E60474EE
:2002C20084F0000000000000000000000000000000000090E6047486F00000000000000044
:2002E2000000000000000000000090E6047488F00000000000000000000000000000000096
:200302000090E604E4F0000000000000000000000000000000000090E6497482F0000000E8
:20032200000000000000000000000000000090E6497482F000000000000000000000000016
:200342000000000000901005E0FF5307037E00BF0005BE00028008BF0333BE003080179026
:20036200E6497482F0000000000000000000000000000000000090E6497482F000000000C1
:2003820000000000000000000000000000901006E0FF90E618F00000000000000000000058
:0D03A200000000000000002212006280FE3A
:06003500E478FFF6D8FD9F
:200013007900E94400601B7A009003B3780175A000E493F2A308B8000205A0D9F4DAF275DD
:02003300A0FF2C
:20003B007800E84400600A790175A000E4F309D8FC7800E84400600C7900900001E4F0A3C3
:04005B00D8FCD9FAFA
:0D0006007581201203AFE582600302000344
:0403AF007582002231
:00000001FF
